{
  "_format": "hh-sol-artifact-1",
  "contractName": "Token",
  "sourceName": "contracts/Token.sol",
  "abi": [
    {
      "inputs": [
        {
          "internalType": "string",
          "name": "_name",
          "type": "string"
        },
        {
          "internalType": "string",
          "name": "_symbol",
          "type": "string"
        },
        {
          "internalType": "uint256",
          "name": "_totalSupply",
          "type": "uint256"
        }
      ],
      "stateMutability": "nonpayable",
      "type": "constructor"
    },
    {
      "anonymous": false,
      "inputs": [
        {
          "indexed": true,
          "internalType": "address",
          "name": "from",
          "type": "address"
        },
        {
          "indexed": true,
          "internalType": "address",
          "name": "to",
          "type": "address"
        },
        {
          "indexed": false,
          "internalType": "uint256",
          "name": "value",
          "type": "uint256"
        }
      ],
      "name": "Transfer",
      "type": "event"
    },
    {
      "inputs": [
        {
          "internalType": "address",
          "name": "",
          "type": "address"
        }
      ],
      "name": "balanceOf",
      "outputs": [
        {
          "internalType": "uint256",
          "name": "",
          "type": "uint256"
        }
      ],
      "stateMutability": "view",
      "type": "function"
    },
    {
      "inputs": [],
      "name": "decimals",
      "outputs": [
        {
          "internalType": "uint256",
          "name": "",
          "type": "uint256"
        }
      ],
      "stateMutability": "view",
      "type": "function"
    },
    {
      "inputs": [],
      "name": "name",
      "outputs": [
        {
          "internalType": "string",
          "name": "",
          "type": "string"
        }
      ],
      "stateMutability": "view",
      "type": "function"
    },
    {
      "inputs": [],
      "name": "symbol",
      "outputs": [
        {
          "internalType": "string",
          "name": "",
          "type": "string"
        }
      ],
      "stateMutability": "view",
      "type": "function"
    },
    {
      "inputs": [],
      "name": "totalSupply",
      "outputs": [
        {
          "internalType": "uint256",
          "name": "",
          "type": "uint256"
        }
      ],
      "stateMutability": "view",
      "type": "function"
    },
    {
      "inputs": [
        {
          "internalType": "address",
          "name": "_to",
          "type": "address"
        },
        {
          "internalType": "uint256",
          "name": "_value",
          "type": "uint256"
        }
      ],
      "name": "transfer",
      "outputs": [
        {
          "internalType": "bool",
          "name": "success",
          "type": "bool"
        }
      ],
      "stateMutability": "nonpayable",
      "type": "function"
    }
  ],
  "bytecode": "0x60806040526012600255600254600a6200001a919062000342565b620f42406200002a919062000393565b6003553480156200003a57600080fd5b5060405162000ed438038062000ed48339818101604052810190620000609190620005c2565b82600090805190602001906200007892919062000105565b5081600190805190602001906200009192919062000105565b50600254600a620000a3919062000342565b81620000b0919062000393565b600381905550600354600460003373ffffffffffffffffffffffffffffffffffffffff1673ffffffffffffffffffffffffffffffffffffffff16815260200190815260200160002081905550505050620006c1565b82805462000113906200068b565b90600052602060002090601f01602090048101928262000137576000855562000183565b82601f106200015257805160ff191683800117855562000183565b8280016001018555821562000183579182015b828111156200018257825182559160200191906001019062000165565b5b50905062000192919062000196565b5090565b5b80821115620001b157600081600090555060010162000197565b5090565b7f4e487b7100000000000000000000000000000000000000000000000000000000600052601160045260246000fd5b60008160011c9050919050565b6000808291508390505b600185111562000243578086048111156200021b576200021a620001b5565b5b60018516156200022b5780820291505b80810290506200023b85620001e4565b9450620001fb565b94509492505050565b6000826200025e576001905062000331565b816200026e576000905062000331565b81600181146200028757600281146200029257620002c8565b600191505062000331565b60ff841115620002a757620002a6620001b5565b5b8360020a915084821115620002c157620002c0620001b5565b5b5062000331565b5060208310610133831016604e8410600b8410161715620003025782820a905083811115620002fc57620002fb620001b5565b5b62000331565b620003118484846001620001f1565b925090508184048111156200032b576200032a620001b5565b5b81810290505b9392505050565b6000819050919050565b60006200034f8262000338565b91506200035c8362000338565b92506200038b7fffffffffffffffffffffffffffffffffffffffffffffffffffffffffffffffff84846200024c565b905092915050565b6000620003a08262000338565b9150620003ad8362000338565b9250817fffffffffffffffffffffffffffffffffffffffffffffffffffffffffffffffff0483118215151615620003e957620003e8620001b5565b5b828202905092915050565b6000604051905090565b600080fd5b600080fd5b600080fd5b600080fd5b6000601f19601f8301169050919050565b7f4e487b7100000000000000000000000000000000000000000000000000000000600052604160045260246000fd5b6200045d8262000412565b810181811067ffffffffffffffff821117156200047f576200047e62000423565b5b80604052505050565b600062000494620003f4565b9050620004a2828262000452565b919050565b600067ffffffffffffffff821115620004c557620004c462000423565b5b620004d08262000412565b9050602081019050919050565b60005b83811015620004fd578082015181840152602081019050620004e0565b838111156200050d576000848401525b50505050565b60006200052a6200052484620004a7565b62000488565b9050828152602081018484840111156200054957620005486200040d565b5b62000556848285620004dd565b509392505050565b600082601f83011262000576576200057562000408565b5b81516200058884826020860162000513565b91505092915050565b6200059c8162000338565b8114620005a857600080fd5b50565b600081519050620005bc8162000591565b92915050565b600080600060608486031215620005de57620005dd620003fe565b5b600084015167ffffffffffffffff811115620005ff57620005fe62000403565b5b6200060d868287016200055e565b935050602084015167ffffffffffffffff81111562000631576200063062000403565b5b6200063f868287016200055e565b92505060406200065286828701620005ab565b9150509250925092565b7f4e487b7100000000000000000000000000000000000000000000000000000000600052602260045260246000fd5b60006002820490506001821680620006a457607f821691505b60208210811415620006bb57620006ba6200065c565b5b50919050565b61080380620006d16000396000f3fe608060405234801561001057600080fd5b50600436106100625760003560e01c806306fdde031461006757806318160ddd14610085578063313ce567146100a357806370a08231146100c157806395d89b41146100f1578063a9059cbb1461010f575b600080fd5b61006f61013f565b60405161007c919061052b565b60405180910390f35b61008d6101cd565b60405161009a9190610566565b60405180910390f35b6100ab6101d3565b6040516100b89190610566565b60405180910390f35b6100db60048036038101906100d691906105e4565b6101d9565b6040516100e89190610566565b60405180910390f35b6100f96101f1565b604051610106919061052b565b60405180910390f35b6101296004803603810190610124919061063d565b61027f565b6040516101369190610698565b60405180910390f35b6000805461014c906106e2565b80601f0160208091040260200160405190810160405280929190818152602001828054610178906106e2565b80156101c55780601f1061019a576101008083540402835291602001916101c5565b820191906000526020600020905b8154815290600101906020018083116101a857829003601f168201915b505050505081565b60035481565b60025481565b60046020528060005260406000206000915090505481565b600180546101fe906106e2565b80601f016020809104026020016040519081016040528092919081815260200182805461022a906106e2565b80156102775780601f1061024c57610100808354040283529160200191610277565b820191906000526020600020905b81548152906001019060200180831161025a57829003601f168201915b505050505081565b600081600460003373ffffffffffffffffffffffffffffffffffffffff1673ffffffffffffffffffffffffffffffffffffffff1681526020019081526020016000205410156102cd57600080fd5b600073ffffffffffffffffffffffffffffffffffffffff168373ffffffffffffffffffffffffffffffffffffffff16141561030757600080fd5b81600460003373ffffffffffffffffffffffffffffffffffffffff1673ffffffffffffffffffffffffffffffffffffffff168152602001908152602001600020546103529190610743565b600460003373ffffffffffffffffffffffffffffffffffffffff1673ffffffffffffffffffffffffffffffffffffffff1681526020019081526020016000208190555081600460008573ffffffffffffffffffffffffffffffffffffffff1673ffffffffffffffffffffffffffffffffffffffff168152602001908152602001600020546103e09190610777565b600460008573ffffffffffffffffffffffffffffffffffffffff1673ffffffffffffffffffffffffffffffffffffffff168152602001908152602001600020819055508273ffffffffffffffffffffffffffffffffffffffff163373ffffffffffffffffffffffffffffffffffffffff167fddf252ad1be2c89b69c2b068fc378daa952ba7f163c4a11628f55a4df523b3ef846040516104809190610566565b60405180910390a36001905092915050565b600081519050919050565b600082825260208201905092915050565b60005b838110156104cc5780820151818401526020810190506104b1565b838111156104db576000848401525b50505050565b6000601f19601f8301169050919050565b60006104fd82610492565b610507818561049d565b93506105178185602086016104ae565b610520816104e1565b840191505092915050565b6000602082019050818103600083015261054581846104f2565b905092915050565b6000819050919050565b6105608161054d565b82525050565b600060208201905061057b6000830184610557565b92915050565b600080fd5b600073ffffffffffffffffffffffffffffffffffffffff82169050919050565b60006105b182610586565b9050919050565b6105c1816105a6565b81146105cc57600080fd5b50565b6000813590506105de816105b8565b92915050565b6000602082840312156105fa576105f9610581565b5b6000610608848285016105cf565b91505092915050565b61061a8161054d565b811461062557600080fd5b50565b60008135905061063781610611565b92915050565b6000806040838503121561065457610653610581565b5b6000610662858286016105cf565b925050602061067385828601610628565b9150509250929050565b60008115159050919050565b6106928161067d565b82525050565b60006020820190506106ad6000830184610689565b92915050565b7f4e487b7100000000000000000000000000000000000000000000000000000000600052602260045260246000fd5b600060028204905060018216806106fa57607f821691505b6020821081141561070e5761070d6106b3565b5b50919050565b7f4e487b7100000000000000000000000000000000000000000000000000000000600052601160045260246000fd5b600061074e8261054d565b91506107598361054d565b92508282101561076c5761076b610714565b5b828203905092915050565b60006107828261054d565b915061078d8361054d565b9250827fffffffffffffffffffffffffffffffffffffffffffffffffffffffffffffffff038211156107c2576107c1610714565b5b82820190509291505056fea26469706673582212203350030161cb68d66a738a7c6234edaeeaeb4637b1b212294dae101f4945944a64736f6c63430008090033",
  "linkReferences": {},
  "deployedLinkReferences": {}
}